{
  "contractName": "ApplicationContract",
  "abi": [
    {
      "anonymous": false,
      "inputs": [
        {
          "indexed": true,
          "internalType": "string",
          "name": "id",
          "type": "string"
        },
        {
          "indexed": true,
          "internalType": "address",
          "name": "applierAddress",
          "type": "address"
        },
        {
          "indexed": true,
          "internalType": "string",
          "name": "institute",
          "type": "string"
        },
        {
          "components": [
            {
              "internalType": "string",
              "name": "id",
              "type": "string"
            },
            {
              "internalType": "string",
              "name": "name",
              "type": "string"
            },
            {
              "internalType": "string",
              "name": "subject",
              "type": "string"
            },
            {
              "internalType": "string",
              "name": "description",
              "type": "string"
            },
            {
              "internalType": "string",
              "name": "file",
              "type": "string"
            },
            {
              "internalType": "address",
              "name": "applierAddress",
              "type": "address"
            },
            {
              "internalType": "address[]",
              "name": "recipients",
              "type": "address[]"
            },
            {
              "internalType": "string",
              "name": "institute",
              "type": "string"
            },
            {
              "internalType": "string[]",
              "name": "states",
              "type": "string[]"
            },
            {
              "internalType": "string[]",
              "name": "remarks",
              "type": "string[]"
            }
          ],
          "indexed": false,
          "internalType": "struct ApplicationContract.Application",
          "name": "application",
          "type": "tuple"
        }
      ],
      "name": "ApplicationWrite",
      "type": "event"
    },
    {
      "anonymous": false,
      "inputs": [
        {
          "indexed": true,
          "internalType": "address",
          "name": "userAddress",
          "type": "address"
        },
        {
          "indexed": false,
          "internalType": "string[]",
          "name": "applicationID",
          "type": "string[]"
        }
      ],
      "name": "ApplicationsToAddress",
      "type": "event"
    },
    {
      "inputs": [
        {
          "internalType": "string",
          "name": "",
          "type": "string"
        }
      ],
      "name": "applications",
      "outputs": [
        {
          "internalType": "string",
          "name": "id",
          "type": "string"
        },
        {
          "internalType": "string",
          "name": "name",
          "type": "string"
        },
        {
          "internalType": "string",
          "name": "subject",
          "type": "string"
        },
        {
          "internalType": "string",
          "name": "description",
          "type": "string"
        },
        {
          "internalType": "string",
          "name": "file",
          "type": "string"
        },
        {
          "internalType": "address",
          "name": "applierAddress",
          "type": "address"
        },
        {
          "internalType": "string",
          "name": "institute",
          "type": "string"
        }
      ],
      "stateMutability": "view",
      "type": "function",
      "constant": true
    },
    {
      "inputs": [
        {
          "internalType": "address",
          "name": "",
          "type": "address"
        },
        {
          "internalType": "uint256",
          "name": "",
          "type": "uint256"
        }
      ],
      "name": "applicationsReceived",
      "outputs": [
        {
          "internalType": "string",
          "name": "",
          "type": "string"
        }
      ],
      "stateMutability": "view",
      "type": "function",
      "constant": true
    },
    {
      "inputs": [
        {
          "internalType": "string",
          "name": "id",
          "type": "string"
        },
        {
          "internalType": "string",
          "name": "name",
          "type": "string"
        },
        {
          "internalType": "string",
          "name": "subject",
          "type": "string"
        },
        {
          "internalType": "string",
          "name": "description",
          "type": "string"
        },
        {
          "internalType": "address[]",
          "name": "recipients",
          "type": "address[]"
        },
        {
          "internalType": "string",
          "name": "institute",
          "type": "string"
        },
        {
          "internalType": "string",
          "name": "file",
          "type": "string"
        }
      ],
      "name": "create",
      "outputs": [],
      "stateMutability": "nonpayable",
      "type": "function"
    },
    {
      "inputs": [
        {
          "internalType": "string",
          "name": "id",
          "type": "string"
        }
      ],
      "name": "getApplication",
      "outputs": [
        {
          "components": [
            {
              "internalType": "string",
              "name": "id",
              "type": "string"
            },
            {
              "internalType": "string",
              "name": "name",
              "type": "string"
            },
            {
              "internalType": "string",
              "name": "subject",
              "type": "string"
            },
            {
              "internalType": "string",
              "name": "description",
              "type": "string"
            },
            {
              "internalType": "string",
              "name": "file",
              "type": "string"
            },
            {
              "internalType": "address",
              "name": "applierAddress",
              "type": "address"
            },
            {
              "internalType": "address[]",
              "name": "recipients",
              "type": "address[]"
            },
            {
              "internalType": "string",
              "name": "institute",
              "type": "string"
            },
            {
              "internalType": "string[]",
              "name": "states",
              "type": "string[]"
            },
            {
              "internalType": "string[]",
              "name": "remarks",
              "type": "string[]"
            }
          ],
          "internalType": "struct ApplicationContract.Application",
          "name": "",
          "type": "tuple"
        }
      ],
      "stateMutability": "view",
      "type": "function",
      "constant": true
    },
    {
      "inputs": [
        {
          "internalType": "string",
          "name": "id",
          "type": "string"
        },
        {
          "internalType": "string",
          "name": "status",
          "type": "string"
        },
        {
          "internalType": "string",
          "name": "remark",
          "type": "string"
        }
      ],
      "name": "updateRemark",
      "outputs": [],
      "stateMutability": "nonpayable",
      "type": "function"
    },
    {
      "inputs": [],
      "name": "getID",
      "outputs": [
        {
          "internalType": "address",
          "name": "",
          "type": "address"
        }
      ],
      "stateMutability": "view",
      "type": "function",
      "constant": true
    },
    {
      "inputs": [],
      "name": "getApplicationsToAddress",
      "outputs": [
        {
          "internalType": "string[]",
          "name": "",
          "type": "string[]"
        }
      ],
      "stateMutability": "view",
      "type": "function",
      "constant": true
    }
  ],
  "bytecode": "0x608060405234801561001057600080fd5b50612cc2806100206000396000f3fe608060405234801561001057600080fd5b506004361061007d5760003560e01c8063de5126f71161005b578063de5126f7146100f4578063e6f5291b14610110578063f047a0da14610140578063f37d01d41461015c5761007d565b8063185f4882146100825780638d14b919146100b8578063ab9dbd07146100d6575b600080fd5b61009c60048036038101906100979190611e5e565b61018c565b6040516100af9796959493929190611f67565b60405180910390f35b6100c0610534565b6040516100cd919061210c565b60405180910390f35b6100de61064a565b6040516100eb919061212e565b60405180910390f35b61010e6004803603810190610109919061223d565b610652565b005b61012a60048036038101906101259190611e5e565b610b73565b60405161013791906125f9565b60405180910390f35b61015a6004803603810190610155919061261b565b6111ae565b005b610176600480360381019061017191906126f8565b611a7e565b6040516101839190612738565b60405180910390f35b6000818051602081018201805184825260208301602085012081835280955050505050506000915090508060000180546101c590612789565b80601f01602080910402602001604051908101604052809291908181526020018280546101f190612789565b801561023e5780601f106102135761010080835404028352916020019161023e565b820191906000526020600020905b81548152906001019060200180831161022157829003601f168201915b50505050509080600101805461025390612789565b80601f016020809104026020016040519081016040528092919081815260200182805461027f90612789565b80156102cc5780601f106102a1576101008083540402835291602001916102cc565b820191906000526020600020905b8154815290600101906020018083116102af57829003601f168201915b5050505050908060020180546102e190612789565b80601f016020809104026020016040519081016040528092919081815260200182805461030d90612789565b801561035a5780601f1061032f5761010080835404028352916020019161035a565b820191906000526020600020905b81548152906001019060200180831161033d57829003601f168201915b50505050509080600301805461036f90612789565b80601f016020809104026020016040519081016040528092919081815260200182805461039b90612789565b80156103e85780601f106103bd576101008083540402835291602001916103e8565b820191906000526020600020905b8154815290600101906020018083116103cb57829003601f168201915b5050505050908060040180546103fd90612789565b80601f016020809104026020016040519081016040528092919081815260200182805461042990612789565b80156104765780601f1061044b57610100808354040283529160200191610476565b820191906000526020600020905b81548152906001019060200180831161045957829003601f168201915b5050505050908060050160009054906101000a900473ffffffffffffffffffffffffffffffffffffffff16908060070180546104b190612789565b80601f01602080910402602001604051908101604052809291908181526020018280546104dd90612789565b801561052a5780601f106104ff5761010080835404028352916020019161052a565b820191906000526020600020905b81548152906001019060200180831161050d57829003601f168201915b5050505050905087565b6060600160003373ffffffffffffffffffffffffffffffffffffffff1673ffffffffffffffffffffffffffffffffffffffff168152602001908152602001600020805480602002602001604051908101604052809291908181526020016000905b828210156106415783829060005260206000200180546105b490612789565b80601f01602080910402602001604051908101604052809291908181526020018280546105e090612789565b801561062d5780601f106106025761010080835404028352916020019161062d565b820191906000526020600020905b81548152906001019060200180831161061057829003601f168201915b505050505081526020019060010190610595565b50505050905090565b600033905090565b61065a611b37565b878160000181905250868160200181905250858160400181905250848160600181905250338160a0019073ffffffffffffffffffffffffffffffffffffffff16908173ffffffffffffffffffffffffffffffffffffffff1681525050838160c00181905250818160800181905250828160e001819052506000845190508067ffffffffffffffff8111156106f1576106f0611d33565b5b60405190808252806020026020018201604052801561072457816020015b606081526020019060019003908161070f5790505b508261010001819052508067ffffffffffffffff81111561074857610747611d33565b5b60405190808252806020026020018201604052801561077b57816020015b60608152602001906001900390816107665790505b5082610120018190525060005b8181101561099f576040518060400160405280600181526020017f300000000000000000000000000000000000000000000000000000000000000081525083610100015182815181106107de576107dd6127ba565b5b60200260200101819052506040518060400160405280600481526020017f6e6f6e65000000000000000000000000000000000000000000000000000000008152508361012001518281518110610837576108366127ba565b5b602002602001018190525060016000878381518110610859576108586127ba565b5b602002602001015173ffffffffffffffffffffffffffffffffffffffff1673ffffffffffffffffffffffffffffffffffffffff1681526020019081526020016000208a9080600181540180825580915050600190039060005260206000200160009091909190915090816108cd9190612995565b508581815181106108e1576108e06127ba565b5b602002602001015173ffffffffffffffffffffffffffffffffffffffff167f61c0a27059b2bada91e9f6934f269f2a4eac98b9308fd46d0240f4322a9d046c60016000898581518110610937576109366127ba565b5b602002602001015173ffffffffffffffffffffffffffffffffffffffff1673ffffffffffffffffffffffffffffffffffffffff1681526020019081526020016000206040516109869190612ba0565b60405180910390a28061099890612bf1565b9050610788565b508160008a6040516109b19190612c75565b908152602001604051809103902060008201518160000190816109d49190612995565b5060208201518160010190816109ea9190612995565b506040820151816002019081610a009190612995565b506060820151816003019081610a169190612995565b506080820151816004019081610a2c9190612995565b5060a08201518160050160006101000a81548173ffffffffffffffffffffffffffffffffffffffff021916908373ffffffffffffffffffffffffffffffffffffffff16021790555060c0820151816006019080519060200190610a90929190611ba0565b5060e0820151816007019081610aa69190612995565b50610100820151816008019080519060200190610ac4929190611c2a565b50610120820151816009019080519060200190610ae2929190611c2a565b509050508160e00151604051610af89190612c75565b60405180910390203373ffffffffffffffffffffffffffffffffffffffff168360000151604051610b299190612c75565b60405180910390207fb9775b59d4d73617e1b63a0edccb8822d3e691835c43819132b1ee6e772d56a085604051610b6091906125f9565b60405180910390a4505050505050505050565b610b7b611b37565b600082604051610b8b9190612c75565b908152602001604051809103902060405180610140016040529081600082018054610bb590612789565b80601f0160208091040260200160405190810160405280929190818152602001828054610be190612789565b8015610c2e5780601f10610c0357610100808354040283529160200191610c2e565b820191906000526020600020905b815481529060010190602001808311610c1157829003601f168201915b50505050508152602001600182018054610c4790612789565b80601f0160208091040260200160405190810160405280929190818152602001828054610c7390612789565b8015610cc05780601f10610c9557610100808354040283529160200191610cc0565b820191906000526020600020905b815481529060010190602001808311610ca357829003601f168201915b50505050508152602001600282018054610cd990612789565b80601f0160208091040260200160405190810160405280929190818152602001828054610d0590612789565b8015610d525780601f10610d2757610100808354040283529160200191610d52565b820191906000526020600020905b815481529060010190602001808311610d3557829003601f168201915b50505050508152602001600382018054610d6b90612789565b80601f0160208091040260200160405190810160405280929190818152602001828054610d9790612789565b8015610de45780601f10610db957610100808354040283529160200191610de4565b820191906000526020600020905b815481529060010190602001808311610dc757829003601f168201915b50505050508152602001600482018054610dfd90612789565b80601f0160208091040260200160405190810160405280929190818152602001828054610e2990612789565b8015610e765780601f10610e4b57610100808354040283529160200191610e76565b820191906000526020600020905b815481529060010190602001808311610e5957829003601f168201915b505050505081526020016005820160009054906101000a900473ffffffffffffffffffffffffffffffffffffffff1673ffffffffffffffffffffffffffffffffffffffff1673ffffffffffffffffffffffffffffffffffffffff16815260200160068201805480602002602001604051908101604052809291908181526020018280548015610f5a57602002820191906000526020600020905b8160009054906101000a900473ffffffffffffffffffffffffffffffffffffffff1673ffffffffffffffffffffffffffffffffffffffff1681526020019060010190808311610f10575b50505050508152602001600782018054610f7390612789565b80601f0160208091040260200160405190810160405280929190818152602001828054610f9f90612789565b8015610fec5780601f10610fc157610100808354040283529160200191610fec565b820191906000526020600020905b815481529060010190602001808311610fcf57829003601f168201915b5050505050815260200160088201805480602002602001604051908101604052809291908181526020016000905b828210156110c657838290600052602060002001805461103990612789565b80601f016020809104026020016040519081016040528092919081815260200182805461106590612789565b80156110b25780601f10611087576101008083540402835291602001916110b2565b820191906000526020600020905b81548152906001019060200180831161109557829003601f168201915b50505050508152602001906001019061101a565b50505050815260200160098201805480602002602001604051908101604052809291908181526020016000905b8282101561119f57838290600052602060002001805461111290612789565b80601f016020809104026020016040519081016040528092919081815260200182805461113e90612789565b801561118b5780601f106111605761010080835404028352916020019161118b565b820191906000526020600020905b81548152906001019060200180831161116e57829003601f168201915b5050505050815260200190600101906110f3565b50505050815250509050919050565b600080846040516111bf9190612c75565b9081526020016040518091039020604051806101400160405290816000820180546111e990612789565b80601f016020809104026020016040519081016040528092919081815260200182805461121590612789565b80156112625780601f1061123757610100808354040283529160200191611262565b820191906000526020600020905b81548152906001019060200180831161124557829003601f168201915b5050505050815260200160018201805461127b90612789565b80601f01602080910402602001604051908101604052809291908181526020018280546112a790612789565b80156112f45780601f106112c9576101008083540402835291602001916112f4565b820191906000526020600020905b8154815290600101906020018083116112d757829003601f168201915b5050505050815260200160028201805461130d90612789565b80601f016020809104026020016040519081016040528092919081815260200182805461133990612789565b80156113865780601f1061135b57610100808354040283529160200191611386565b820191906000526020600020905b81548152906001019060200180831161136957829003601f168201915b5050505050815260200160038201805461139f90612789565b80601f01602080910402602001604051908101604052809291908181526020018280546113cb90612789565b80156114185780601f106113ed57610100808354040283529160200191611418565b820191906000526020600020905b8154815290600101906020018083116113fb57829003601f168201915b5050505050815260200160048201805461143190612789565b80601f016020809104026020016040519081016040528092919081815260200182805461145d90612789565b80156114aa5780601f1061147f576101008083540402835291602001916114aa565b820191906000526020600020905b81548152906001019060200180831161148d57829003601f168201915b505050505081526020016005820160009054906101000a900473ffffffffffffffffffffffffffffffffffffffff1673ffffffffffffffffffffffffffffffffffffffff1673ffffffffffffffffffffffffffffffffffffffff1681526020016006820180548060200260200160405190810160405280929190818152602001828054801561158e57602002820191906000526020600020905b8160009054906101000a900473ffffffffffffffffffffffffffffffffffffffff1673ffffffffffffffffffffffffffffffffffffffff1681526020019060010190808311611544575b505050505081526020016007820180546115a790612789565b80601f01602080910402602001604051908101604052809291908181526020018280546115d390612789565b80156116205780601f106115f557610100808354040283529160200191611620565b820191906000526020600020905b81548152906001019060200180831161160357829003601f168201915b5050505050815260200160088201805480602002602001604051908101604052809291908181526020016000905b828210156116fa57838290600052602060002001805461166d90612789565b80601f016020809104026020016040519081016040528092919081815260200182805461169990612789565b80156116e65780601f106116bb576101008083540402835291602001916116e6565b820191906000526020600020905b8154815290600101906020018083116116c957829003601f168201915b50505050508152602001906001019061164e565b50505050815260200160098201805480602002602001604051908101604052809291908181526020016000905b828210156117d357838290600052602060002001805461174690612789565b80601f016020809104026020016040519081016040528092919081815260200182805461177290612789565b80156117bf5780601f10611794576101008083540402835291602001916117bf565b820191906000526020600020905b8154815290600101906020018083116117a257829003601f168201915b505050505081526020019060010190611727565b5050505081525050905060006064905060005b8260c0015151811015611859578260c00151818151811061180a576118096127ba565b5b602002602001015173ffffffffffffffffffffffffffffffffffffffff163373ffffffffffffffffffffffffffffffffffffffff1603611848578091505b8061185290612bf1565b90506117e6565b5060648114611a775782826101200151828151811061187b5761187a6127ba565b5b602002602001018190525083826101000151828151811061189f5761189e6127ba565b5b602002602001018190525081600083600001516040516118bf9190612c75565b908152602001604051809103902060008201518160000190816118e29190612995565b5060208201518160010190816118f89190612995565b50604082015181600201908161190e9190612995565b5060608201518160030190816119249190612995565b50608082015181600401908161193a9190612995565b5060a08201518160050160006101000a81548173ffffffffffffffffffffffffffffffffffffffff021916908373ffffffffffffffffffffffffffffffffffffffff16021790555060c082015181600601908051906020019061199e929190611ba0565b5060e08201518160070190816119b49190612995565b506101008201518160080190805190602001906119d2929190611c2a565b506101208201518160090190805190602001906119f0929190611c2a565b509050508160e00151604051611a069190612c75565b60405180910390203373ffffffffffffffffffffffffffffffffffffffff168360000151604051611a379190612c75565b60405180910390207fb9775b59d4d73617e1b63a0edccb8822d3e691835c43819132b1ee6e772d56a085604051611a6e91906125f9565b60405180910390a45b5050505050565b60016020528160005260406000208181548110611a9a57600080fd5b90600052602060002001600091509150508054611ab690612789565b80601f0160208091040260200160405190810160405280929190818152602001828054611ae290612789565b8015611b2f5780601f10611b0457610100808354040283529160200191611b2f565b820191906000526020600020905b815481529060010190602001808311611b1257829003601f168201915b505050505081565b6040518061014001604052806060815260200160608152602001606081526020016060815260200160608152602001600073ffffffffffffffffffffffffffffffffffffffff168152602001606081526020016060815260200160608152602001606081525090565b828054828255906000526020600020908101928215611c19579160200282015b82811115611c185782518260006101000a81548173ffffffffffffffffffffffffffffffffffffffff021916908373ffffffffffffffffffffffffffffffffffffffff16021790555091602001919060010190611bc0565b5b509050611c269190611c83565b5090565b828054828255906000526020600020908101928215611c72579160200282015b82811115611c71578251829081611c619190612995565b5091602001919060010190611c4a565b5b509050611c7f9190611ca0565b5090565b5b80821115611c9c576000816000905550600101611c84565b5090565b5b80821115611cc05760008181611cb79190611cc4565b50600101611ca1565b5090565b508054611cd090612789565b6000825580601f10611ce25750611d01565b601f016020900490600052602060002090810190611d009190611c83565b5b50565b6000604051905090565b600080fd5b600080fd5b600080fd5b600080fd5b6000601f19601f8301169050919050565b7f4e487b7100000000000000000000000000000000000000000000000000000000600052604160045260246000fd5b611d6b82611d22565b810181811067ffffffffffffffff82111715611d8a57611d89611d33565b5b80604052505050565b6000611d9d611d04565b9050611da98282611d62565b919050565b600067ffffffffffffffff821115611dc957611dc8611d33565b5b611dd282611d22565b9050602081019050919050565b82818337600083830152505050565b6000611e01611dfc84611dae565b611d93565b905082815260208101848484011115611e1d57611e1c611d1d565b5b611e28848285611ddf565b509392505050565b600082601f830112611e4557611e44611d18565b5b8135611e55848260208601611dee565b91505092915050565b600060208284031215611e7457611e73611d0e565b5b600082013567ffffffffffffffff811115611e9257611e91611d13565b5b611e9e84828501611e30565b91505092915050565b600081519050919050565b600082825260208201905092915050565b60005b83811015611ee1578082015181840152602081019050611ec6565b60008484015250505050565b6000611ef882611ea7565b611f028185611eb2565b9350611f12818560208601611ec3565b611f1b81611d22565b840191505092915050565b600073ffffffffffffffffffffffffffffffffffffffff82169050919050565b6000611f5182611f26565b9050919050565b611f6181611f46565b82525050565b600060e0820190508181036000830152611f81818a611eed565b90508181036020830152611f958189611eed565b90508181036040830152611fa98188611eed565b90508181036060830152611fbd8187611eed565b90508181036080830152611fd18186611eed565b9050611fe060a0830185611f58565b81810360c0830152611ff28184611eed565b905098975050505050505050565b600081519050919050565b600082825260208201905092915050565b6000819050602082019050919050565b600082825260208201905092915050565b600061204882611ea7565b612052818561202c565b9350612062818560208601611ec3565b61206b81611d22565b840191505092915050565b6000612082838361203d565b905092915050565b6000602082019050919050565b60006120a282612000565b6120ac818561200b565b9350836020820285016120be8561201c565b8060005b858110156120fa57848403895281516120db8582612076565b94506120e68361208a565b925060208a019950506001810190506120c2565b50829750879550505050505092915050565b600060208201905081810360008301526121268184612097565b905092915050565b60006020820190506121436000830184611f58565b92915050565b600067ffffffffffffffff82111561216457612163611d33565b5b602082029050602081019050919050565b600080fd5b61218381611f46565b811461218e57600080fd5b50565b6000813590506121a08161217a565b92915050565b60006121b96121b484612149565b611d93565b905080838252602082019050602084028301858111156121dc576121db612175565b5b835b8181101561220557806121f18882612191565b8452602084019350506020810190506121de565b5050509392505050565b600082601f83011261222457612223611d18565b5b81356122348482602086016121a6565b91505092915050565b600080600080600080600060e0888a03121561225c5761225b611d0e565b5b600088013567ffffffffffffffff81111561227a57612279611d13565b5b6122868a828b01611e30565b975050602088013567ffffffffffffffff8111156122a7576122a6611d13565b5b6122b38a828b01611e30565b965050604088013567ffffffffffffffff8111156122d4576122d3611d13565b5b6122e08a828b01611e30565b955050606088013567ffffffffffffffff81111561230157612300611d13565b5b61230d8a828b01611e30565b945050608088013567ffffffffffffffff81111561232e5761232d611d13565b5b61233a8a828b0161220f565b93505060a088013567ffffffffffffffff81111561235b5761235a611d13565b5b6123678a828b01611e30565b92505060c088013567ffffffffffffffff81111561238857612387611d13565b5b6123948a828b01611e30565b91505092959891949750929550565b6123ac81611f46565b82525050565b600081519050919050565b600082825260208201905092915050565b6000819050602082019050919050565b60006123ea83836123a3565b60208301905092915050565b6000602082019050919050565b600061240e826123b2565b61241881856123bd565b9350612423836123ce565b8060005b8381101561245457815161243b88826123de565b9750612446836123f6565b925050600181019050612427565b5085935050505092915050565b600082825260208201905092915050565b600061247d82612000565b6124878185612461565b9350836020820285016124998561201c565b8060005b858110156124d557848403895281516124b68582612076565b94506124c18361208a565b925060208a0199505060018101905061249d565b50829750879550505050505092915050565b6000610140830160008301518482036000860152612505828261203d565b9150506020830151848203602086015261251f828261203d565b91505060408301518482036040860152612539828261203d565b91505060608301518482036060860152612553828261203d565b9150506080830151848203608086015261256d828261203d565b91505060a083015161258260a08601826123a3565b5060c083015184820360c086015261259a8282612403565b91505060e083015184820360e08601526125b4828261203d565b9150506101008301518482036101008601526125d08282612472565b9150506101208301518482036101208601526125ec8282612472565b9150508091505092915050565b6000602082019050818103600083015261261381846124e7565b905092915050565b60008060006060848603121561263457612633611d0e565b5b600084013567ffffffffffffffff81111561265257612651611d13565b5b61265e86828701611e30565b935050602084013567ffffffffffffffff81111561267f5761267e611d13565b5b61268b86828701611e30565b925050604084013567ffffffffffffffff8111156126ac576126ab611d13565b5b6126b886828701611e30565b9150509250925092565b6000819050919050565b6126d5816126c2565b81146126e057600080fd5b50565b6000813590506126f2816126cc565b92915050565b6000806040838503121561270f5761270e611d0e565b5b600061271d85828601612191565b925050602061272e858286016126e3565b9150509250929050565b600060208201905081810360008301526127528184611eed565b905092915050565b7f4e487b7100000000000000000000000000000000000000000000000000000000600052602260045260246000fd5b600060028204905060018216806127a157607f821691505b6020821081036127b4576127b361275a565b5b50919050565b7f4e487b7100000000000000000000000000000000000000000000000000000000600052603260045260246000fd5b60008190508160005260206000209050919050565b60006020601f8301049050919050565b600082821b905092915050565b60006008830261284b7fffffffffffffffffffffffffffffffffffffffffffffffffffffffffffffffff8261280e565b612855868361280e565b95508019841693508086168417925050509392505050565b6000819050919050565b600061289261288d612888846126c2565b61286d565b6126c2565b9050919050565b6000819050919050565b6128ac83612877565b6128c06128b882612899565b84845461281b565b825550505050565b600090565b6128d56128c8565b6128e08184846128a3565b505050565b5b81811015612904576128f96000826128cd565b6001810190506128e6565b5050565b601f8211156129495761291a816127e9565b612923846127fe565b81016020851015612932578190505b61294661293e856127fe565b8301826128e5565b50505b505050565b600082821c905092915050565b600061296c6000198460080261294e565b1980831691505092915050565b6000612985838361295b565b9150826002028217905092915050565b61299e82611ea7565b67ffffffffffffffff8111156129b7576129b6611d33565b5b6129c18254612789565b6129cc828285612908565b600060209050601f8311600181146129ff57600084156129ed578287015190505b6129f78582612979565b865550612a5f565b601f198416612a0d866127e9565b60005b82811015612a3557848901518255600182019150602085019450602081019050612a10565b86831015612a525784890151612a4e601f89168261295b565b8355505b6001600288020188555050505b505050505050565b600081549050919050565b60008190508160005260206000209050919050565b60008154612a9481612789565b612a9e818661202c565b94506001821660008114612ab95760018114612acf57612b02565b60ff198316865281151560200286019350612b02565b612ad8856127e9565b60005b83811015612afa57815481890152600182019150602081019050612adb565b808801955050505b50505092915050565b6000612b178383612a87565b905092915050565b6000600182019050919050565b6000612b3782612a67565b612b41818561200b565b935083602082028501612b5385612a72565b8060005b85811015612b8e57848403895281612b6f8582612b0b565b9450612b7a83612b1f565b925060208a01995050600181019050612b57565b50829750879550505050505092915050565b60006020820190508181036000830152612bba8184612b2c565b905092915050565b7f4e487b7100000000000000000000000000000000000000000000000000000000600052601160045260246000fd5b6000612bfc826126c2565b91507fffffffffffffffffffffffffffffffffffffffffffffffffffffffffffffffff8203612c2e57612c2d612bc2565b5b600182019050919050565b600081905092915050565b6000612c4f82611ea7565b612c598185612c39565b9350612c69818560208601611ec3565b80840191505092915050565b6000612c818284612c44565b91508190509291505056fea2646970667358221220c730c661fb55168e43b9eea51855eb6c994d359397b381d58b60e1e36803f50164736f6c63430008110033",
  "immutableReferences": {},
  "source": "// SPDX-License-Identifier: GPL-3.0\r\npragma solidity >=0.8.0 <0.9.0;\r\n\r\ncontract ApplicationContract {\r\n    event ApplicationWrite(\r\n        string indexed id,\r\n        address indexed applierAddress,\r\n        string indexed institute,\r\n        Application application\r\n    );\r\n    event ApplicationsToAddress(\r\n        address indexed userAddress,\r\n        string[] applicationID\r\n    );\r\n\r\n    struct Application {\r\n        string id;\r\n        string name;\r\n        string subject;\r\n        string description;\r\n        string file;\r\n        address applierAddress;\r\n        address[] recipients;\r\n        string institute;\r\n        string[] states;\r\n        string[] remarks;\r\n    }\r\n\r\n    mapping(string => Application) public applications;\r\n    mapping(address => string[]) public applicationsReceived;\r\n\r\n    function create(\r\n        string memory id,\r\n        string memory name,\r\n        string memory subject,\r\n        string memory description,\r\n        address[] memory recipients,\r\n        string memory institute,\r\n        string memory file\r\n    ) public {\r\n        Application memory a;\r\n        a.id = id;\r\n        a.name = name;\r\n        a.subject = subject;\r\n        a.description = description;\r\n        a.applierAddress = msg.sender;\r\n        a.recipients = recipients;\r\n        a.file = file;\r\n        a.institute=institute;\r\n        \r\n        uint256 addLength = recipients.length;\r\n        a.states = new string[](addLength);\r\n        a.remarks = new string[](addLength);\r\n        for(uint256 i=0;i<addLength;++i){\r\n            a.states[i] = \"0\";\r\n            a.remarks[i] = \"none\";\r\n            applicationsReceived[ recipients[i] ].push(id);\r\n            emit ApplicationsToAddress(recipients[i], applicationsReceived[ recipients[i] ]);\r\n        }\r\n        applications[id] = a;\r\n\r\n        emit ApplicationWrite(a.id, msg.sender,  a.institute, a);\r\n    }\r\n\r\n    function getApplication(string memory id) public view returns (Application memory) {\r\n        return applications[id];\r\n    }\r\n\r\n    function updateRemark(string memory id, string memory status, string memory remark ) \r\n    public{\r\n            Application memory a = applications[id];\r\n            uint256 ind = 100;\r\n            for(uint256 i=0;i<a.recipients.length;++i){\r\n                if(msg.sender == a.recipients[i]){\r\n                    ind = i;\r\n                }\r\n            }\r\n            if(ind != 100){\r\n                a.remarks[ind] = remark;\r\n                a.states[ind] = status;\r\n                applications[a.id] = a;\r\n                emit ApplicationWrite(a.id, msg.sender,  a.institute,a);\r\n            } \r\n    }\r\n\r\n    function getID() public view returns(address){\r\n        return msg.sender;\r\n    }\r\n\r\n    function getApplicationsToAddress() public view returns(string[] memory){\r\n        return applicationsReceived[msg.sender];\r\n    }\r\n\r\n}",
  "sourcePath": "D:\\Git\\projects\\web3Campus\\letter-contract\\contracts\\1_ApplicationContract.sol",
  "compiler": {
    "name": "solc",
    "version": "0.8.17+commit.8df45f5f.Emscripten.clang"
  },
  "schemaVersion": "3.4.11",
  "updatedAt": "2023-02-09T21:56:18.399Z",
  "networkType": "ethereum",
  "devdoc": {
    "kind": "dev",
    "methods": {},
    "version": 1
  },
  "userdoc": {
    "kind": "user",
    "methods": {},
    "version": 1
  }
}