{
  "contractName": "MailToAddress",
  "abi": [
    {
      "anonymous": false,
      "inputs": [
        {
          "indexed": true,
          "internalType": "string",
          "name": "email",
          "type": "string"
        },
        {
          "indexed": true,
          "internalType": "address",
          "name": "addressID",
          "type": "address"
        }
      ],
      "name": "onCreateEvent",
      "type": "event"
    },
    {
      "inputs": [
        {
          "internalType": "string",
          "name": "email",
          "type": "string"
        },
        {
          "internalType": "address",
          "name": "addressID",
          "type": "address"
        }
      ],
      "name": "create",
      "outputs": [],
      "stateMutability": "nonpayable",
      "type": "function"
    },
    {
      "inputs": [
        {
          "internalType": "string",
          "name": "email",
          "type": "string"
        }
      ],
      "name": "getAddress",
      "outputs": [
        {
          "internalType": "address",
          "name": "",
          "type": "address"
        }
      ],
      "stateMutability": "view",
      "type": "function",
      "constant": true
    }
  ],
  "bytecode": "0x608060405234801561001057600080fd5b506104cd806100206000396000f3fe608060405234801561001057600080fd5b50600436106100365760003560e01c806384b47b0f1461003b578063bf40fac114610057575b600080fd5b61005560048036038101906100509190610340565b610087565b005b610071600480360381019061006c919061039c565b610141565b60405161007e91906103f4565b60405180910390f35b806000836040516100989190610480565b908152602001604051809103902060006101000a81548173ffffffffffffffffffffffffffffffffffffffff021916908373ffffffffffffffffffffffffffffffffffffffff1602179055508073ffffffffffffffffffffffffffffffffffffffff16826040516101099190610480565b60405180910390207f8f81e672d02bb6430f7d35c549da556bba357969aea48a6520fc5892435d6cf860405160405180910390a35050565b600080826040516101529190610480565b908152602001604051809103902060009054906101000a900473ffffffffffffffffffffffffffffffffffffffff169050919050565b6000604051905090565b600080fd5b600080fd5b600080fd5b600080fd5b6000601f19601f8301169050919050565b7f4e487b7100000000000000000000000000000000000000000000000000000000600052604160045260246000fd5b6101ef826101a6565b810181811067ffffffffffffffff8211171561020e5761020d6101b7565b5b80604052505050565b6000610221610188565b905061022d82826101e6565b919050565b600067ffffffffffffffff82111561024d5761024c6101b7565b5b610256826101a6565b9050602081019050919050565b82818337600083830152505050565b600061028561028084610232565b610217565b9050828152602081018484840111156102a1576102a06101a1565b5b6102ac848285610263565b509392505050565b600082601f8301126102c9576102c861019c565b5b81356102d9848260208601610272565b91505092915050565b600073ffffffffffffffffffffffffffffffffffffffff82169050919050565b600061030d826102e2565b9050919050565b61031d81610302565b811461032857600080fd5b50565b60008135905061033a81610314565b92915050565b6000806040838503121561035757610356610192565b5b600083013567ffffffffffffffff81111561037557610374610197565b5b610381858286016102b4565b92505060206103928582860161032b565b9150509250929050565b6000602082840312156103b2576103b1610192565b5b600082013567ffffffffffffffff8111156103d0576103cf610197565b5b6103dc848285016102b4565b91505092915050565b6103ee81610302565b82525050565b600060208201905061040960008301846103e5565b92915050565b600081519050919050565b600081905092915050565b60005b83811015610443578082015181840152602081019050610428565b60008484015250505050565b600061045a8261040f565b610464818561041a565b9350610474818560208601610425565b80840191505092915050565b600061048c828461044f565b91508190509291505056fea2646970667358221220471d0f6f400bdcbd68666fde27f242c55c37ef13c7f52ff0617df37b7f199fe264736f6c63430008110033",
  "immutableReferences": {},
  "source": "// SPDX-License-Identifier: MIT\r\n/* @title MailToAddress\r\n* @custom:dev-run-script ./scripts/deploy_with_ethers.ts\r\n*/\r\n\r\npragma solidity >=0.5.0 < 0.9.0;\r\n\r\ncontract MailToAddress {\r\n\r\n    event onCreateEvent(string indexed email, address indexed addressID);\r\n\r\n\r\n    mapping(string => address) private records;\r\n\r\n    function create(string memory email, address addressID) public {\r\n        // TODO: make if email already exist in map, it cannot be overwritten\r\n        // for testing purposes allow this to happen\r\n        records[email] = addressID;\r\n        emit onCreateEvent(email, addressID);\r\n    }\r\n\r\n    function getAddress(string memory email) public view returns(address){\r\n        return records[email];\r\n    }\r\n}\r\n",
  "sourcePath": "D:\\Git\\projects\\web3Campus\\mail-to-address-contract\\contracts\\1_MailToAddress.sol",
  "compiler": {
    "name": "solc",
    "version": "0.8.17+commit.8df45f5f.Emscripten.clang"
  },
  "schemaVersion": "3.4.11",
  "updatedAt": "2023-02-09T09:24:54.025Z",
  "networkType": "ethereum",
  "devdoc": {
    "kind": "dev",
    "methods": {},
    "version": 1
  },
  "userdoc": {
    "kind": "user",
    "methods": {},
    "version": 1
  }
}