{
  "contractName": "MailToAddress",
  "abi": [
    {
      "anonymous": false,
      "inputs": [
        {
          "indexed": true,
          "internalType": "string",
          "name": "email",
          "type": "string"
        },
        {
          "indexed": true,
          "internalType": "address",
          "name": "addressID",
          "type": "address"
        }
      ],
      "name": "onCreateEvent",
      "type": "event"
    },
    {
      "inputs": [
        {
          "internalType": "string",
          "name": "",
          "type": "string"
        }
      ],
      "name": "records",
      "outputs": [
        {
          "internalType": "address",
          "name": "",
          "type": "address"
        }
      ],
      "stateMutability": "view",
      "type": "function",
      "constant": true
    },
    {
      "inputs": [
        {
          "internalType": "string",
          "name": "email",
          "type": "string"
        },
        {
          "internalType": "address",
          "name": "addressID",
          "type": "address"
        }
      ],
      "name": "create",
      "outputs": [],
      "stateMutability": "nonpayable",
      "type": "function"
    },
    {
      "inputs": [
        {
          "internalType": "string",
          "name": "email",
          "type": "string"
        }
      ],
      "name": "getAddress",
      "outputs": [
        {
          "internalType": "address",
          "name": "",
          "type": "address"
        }
      ],
      "stateMutability": "view",
      "type": "function",
      "constant": true
    }
  ],
  "bytecode": "0x608060405234801561001057600080fd5b50610551806100206000396000f3fe608060405234801561001057600080fd5b50600436106100415760003560e01c8063541e771d1461004657806384b47b0f14610076578063bf40fac114610092575b600080fd5b610060600480360381019061005b9190610366565b6100c2565b60405161006d91906103f0565b60405180910390f35b610090600480360381019061008b9190610437565b61010b565b005b6100ac60048036038101906100a79190610366565b6101c5565b6040516100b991906103f0565b60405180910390f35b6000818051602081018201805184825260208301602085012081835280955050505050506000915054906101000a900473ffffffffffffffffffffffffffffffffffffffff1681565b8060008360405161011c9190610504565b908152602001604051809103902060006101000a81548173ffffffffffffffffffffffffffffffffffffffff021916908373ffffffffffffffffffffffffffffffffffffffff1602179055508073ffffffffffffffffffffffffffffffffffffffff168260405161018d9190610504565b60405180910390207f8f81e672d02bb6430f7d35c549da556bba357969aea48a6520fc5892435d6cf860405160405180910390a35050565b600080826040516101d69190610504565b908152602001604051809103902060009054906101000a900473ffffffffffffffffffffffffffffffffffffffff169050919050565b6000604051905090565b600080fd5b600080fd5b600080fd5b600080fd5b6000601f19601f8301169050919050565b7f4e487b7100000000000000000000000000000000000000000000000000000000600052604160045260246000fd5b6102738261022a565b810181811067ffffffffffffffff821117156102925761029161023b565b5b80604052505050565b60006102a561020c565b90506102b1828261026a565b919050565b600067ffffffffffffffff8211156102d1576102d061023b565b5b6102da8261022a565b9050602081019050919050565b82818337600083830152505050565b6000610309610304846102b6565b61029b565b90508281526020810184848401111561032557610324610225565b5b6103308482856102e7565b509392505050565b600082601f83011261034d5761034c610220565b5b813561035d8482602086016102f6565b91505092915050565b60006020828403121561037c5761037b610216565b5b600082013567ffffffffffffffff81111561039a5761039961021b565b5b6103a684828501610338565b91505092915050565b600073ffffffffffffffffffffffffffffffffffffffff82169050919050565b60006103da826103af565b9050919050565b6103ea816103cf565b82525050565b600060208201905061040560008301846103e1565b92915050565b610414816103cf565b811461041f57600080fd5b50565b6000813590506104318161040b565b92915050565b6000806040838503121561044e5761044d610216565b5b600083013567ffffffffffffffff81111561046c5761046b61021b565b5b61047885828601610338565b925050602061048985828601610422565b9150509250929050565b600081519050919050565b600081905092915050565b60005b838110156104c75780820151818401526020810190506104ac565b60008484015250505050565b60006104de82610493565b6104e8818561049e565b93506104f88185602086016104a9565b80840191505092915050565b600061051082846104d3565b91508190509291505056fea264697066735822122028efa70df8dc9e261050d1ae36442fd685864f44925c05c99c0c27c0cb688f3c64736f6c63430008110033",
  "immutableReferences": {},
  "source": "// SPDX-License-Identifier: MIT\r\n/* @title title\r\n* @custom:dev-run-script ./scripts/deploy_with_ethers.ts\r\n*/\r\n\r\npragma solidity >=0.5.0 < 0.9.0;\r\n\r\ncontract MailToAddress {\r\n\r\n    event onCreateEvent(string indexed email, address indexed addressID);\r\n\r\n\r\n    mapping(string => address) public records;\r\n\r\n    function create(string memory email, address addressID) public {\r\n        records[email] = addressID;\r\n        emit onCreateEvent(email, addressID);\r\n    }\r\n\r\n    function getAddress(string memory email) public view returns(address){\r\n        return records[email];\r\n    }\r\n}\r\n",
  "sourcePath": "D:\\Git\\projects\\web3Campus\\mail-to-address-contract\\contracts\\1_MailToAddress.sol",
  "compiler": {
    "name": "solc",
    "version": "0.8.17+commit.8df45f5f.Emscripten.clang"
  },
  "schemaVersion": "3.4.11",
  "updatedAt": "2023-02-09T08:56:38.074Z",
  "networkType": "ethereum",
  "devdoc": {
    "kind": "dev",
    "methods": {},
    "version": 1
  },
  "userdoc": {
    "kind": "user",
    "methods": {},
    "version": 1
  }
}