{
  "contractName": "MailToAddress",
  "abi": [
    {
      "inputs": [
        {
          "internalType": "string",
          "name": "email",
          "type": "string"
        },
        {
          "internalType": "address",
          "name": "addressID",
          "type": "address"
        }
      ],
      "name": "create",
      "outputs": [],
      "stateMutability": "nonpayable",
      "type": "function"
    },
    {
      "inputs": [
        {
          "internalType": "string",
          "name": "email",
          "type": "string"
        }
      ],
      "name": "getAddress",
      "outputs": [
        {
          "internalType": "address",
          "name": "",
          "type": "address"
        }
      ],
      "stateMutability": "view",
      "type": "function",
      "constant": true
    },
    {
      "inputs": [
        {
          "internalType": "address",
          "name": "add",
          "type": "address"
        }
      ],
      "name": "getMail",
      "outputs": [
        {
          "internalType": "string",
          "name": "",
          "type": "string"
        }
      ],
      "stateMutability": "view",
      "type": "function",
      "constant": true
    }
  ],
  "bytecode": "0x608060405234801561001057600080fd5b5061094e806100206000396000f3fe608060405234801561001057600080fd5b50600436106100415760003560e01c806384b47b0f14610046578063a6e34bb914610062578063bf40fac114610092575b600080fd5b610060600480360381019061005b9190610440565b6100c2565b005b61007c6004803603810190610077919061049c565b610170565b6040516100899190610548565b60405180910390f35b6100ac60048036038101906100a7919061056a565b610241565b6040516100b991906105c2565b60405180910390f35b806000836040516100d39190610619565b908152602001604051809103902060006101000a81548173ffffffffffffffffffffffffffffffffffffffff021916908373ffffffffffffffffffffffffffffffffffffffff16021790555081600160008373ffffffffffffffffffffffffffffffffffffffff1673ffffffffffffffffffffffffffffffffffffffff168152602001908152602001600020908161016b9190610846565b505050565b6060600160008373ffffffffffffffffffffffffffffffffffffffff1673ffffffffffffffffffffffffffffffffffffffff16815260200190815260200160002080546101bc9061065f565b80601f01602080910402602001604051908101604052809291908181526020018280546101e89061065f565b80156102355780601f1061020a57610100808354040283529160200191610235565b820191906000526020600020905b81548152906001019060200180831161021857829003601f168201915b50505050509050919050565b600080826040516102529190610619565b908152602001604051809103902060009054906101000a900473ffffffffffffffffffffffffffffffffffffffff169050919050565b6000604051905090565b600080fd5b600080fd5b600080fd5b600080fd5b6000601f19601f8301169050919050565b7f4e487b7100000000000000000000000000000000000000000000000000000000600052604160045260246000fd5b6102ef826102a6565b810181811067ffffffffffffffff8211171561030e5761030d6102b7565b5b80604052505050565b6000610321610288565b905061032d82826102e6565b919050565b600067ffffffffffffffff82111561034d5761034c6102b7565b5b610356826102a6565b9050602081019050919050565b82818337600083830152505050565b600061038561038084610332565b610317565b9050828152602081018484840111156103a1576103a06102a1565b5b6103ac848285610363565b509392505050565b600082601f8301126103c9576103c861029c565b5b81356103d9848260208601610372565b91505092915050565b600073ffffffffffffffffffffffffffffffffffffffff82169050919050565b600061040d826103e2565b9050919050565b61041d81610402565b811461042857600080fd5b50565b60008135905061043a81610414565b92915050565b6000806040838503121561045757610456610292565b5b600083013567ffffffffffffffff81111561047557610474610297565b5b610481858286016103b4565b92505060206104928582860161042b565b9150509250929050565b6000602082840312156104b2576104b1610292565b5b60006104c08482850161042b565b91505092915050565b600081519050919050565b600082825260208201905092915050565b60005b838110156105035780820151818401526020810190506104e8565b60008484015250505050565b600061051a826104c9565b61052481856104d4565b93506105348185602086016104e5565b61053d816102a6565b840191505092915050565b60006020820190508181036000830152610562818461050f565b905092915050565b6000602082840312156105805761057f610292565b5b600082013567ffffffffffffffff81111561059e5761059d610297565b5b6105aa848285016103b4565b91505092915050565b6105bc81610402565b82525050565b60006020820190506105d760008301846105b3565b92915050565b600081905092915050565b60006105f3826104c9565b6105fd81856105dd565b935061060d8185602086016104e5565b80840191505092915050565b600061062582846105e8565b915081905092915050565b7f4e487b7100000000000000000000000000000000000000000000000000000000600052602260045260246000fd5b6000600282049050600182168061067757607f821691505b60208210810361068a57610689610630565b5b50919050565b60008190508160005260206000209050919050565b60006020601f8301049050919050565b600082821b905092915050565b6000600883026106f27fffffffffffffffffffffffffffffffffffffffffffffffffffffffffffffffff826106b5565b6106fc86836106b5565b95508019841693508086168417925050509392505050565b6000819050919050565b6000819050919050565b600061074361073e61073984610714565b61071e565b610714565b9050919050565b6000819050919050565b61075d83610728565b6107716107698261074a565b8484546106c2565b825550505050565b600090565b610786610779565b610791818484610754565b505050565b5b818110156107b5576107aa60008261077e565b600181019050610797565b5050565b601f8211156107fa576107cb81610690565b6107d4846106a5565b810160208510156107e3578190505b6107f76107ef856106a5565b830182610796565b50505b505050565b600082821c905092915050565b600061081d600019846008026107ff565b1980831691505092915050565b6000610836838361080c565b9150826002028217905092915050565b61084f826104c9565b67ffffffffffffffff811115610868576108676102b7565b5b610872825461065f565b61087d8282856107b9565b600060209050601f8311600181146108b0576000841561089e578287015190505b6108a8858261082a565b865550610910565b601f1984166108be86610690565b60005b828110156108e6578489015182556001820191506020850194506020810190506108c1565b8683101561090357848901516108ff601f89168261080c565b8355505b6001600288020188555050505b50505050505056fea26469706673582212201c0813f738062c115692ecd20fc278b05d669dd17a4f0693e5fd71982848297264736f6c63430008110033",
  "immutableReferences": {},
  "source": "// SPDX-License-Identifier: MIT\r\n/* @title MailToAddress\r\n* @custom:dev-run-script ./scripts/deploy_with_ethers.ts\r\n*/\r\n\r\npragma solidity >=0.5.0 < 0.9.0;\r\n\r\ncontract MailToAddress {\r\n\r\n    mapping(string => address) private records;\r\n    mapping(address => string) private addressRec;\r\n\r\n    function create(string memory email, address addressID) public {\r\n        // TODO: make if email already exist in map, it cannot be overwritten\r\n        // for testing purposes allow this to happen\r\n        records[email] = addressID;\r\n        addressRec[addressID] = email;\r\n    }\r\n\r\n    function getAddress(string memory email) public view returns(address){\r\n        return records[email];\r\n    }\r\n     function getMail(address add) public view returns(string memory){\r\n        return addressRec[add];\r\n    }\r\n}\r\n",
  "sourcePath": "D:\\Git\\projects\\web3Campus\\mail-to-address-contract\\contracts\\1_MailToAddress.sol",
  "compiler": {
    "name": "solc",
    "version": "0.8.17+commit.8df45f5f.Emscripten.clang"
  },
  "schemaVersion": "3.4.11",
  "updatedAt": "2023-02-09T21:34:47.944Z",
  "networkType": "ethereum",
  "devdoc": {
    "kind": "dev",
    "methods": {},
    "version": 1
  },
  "userdoc": {
    "kind": "user",
    "methods": {},
    "version": 1
  }
}